{
  "_format": "hh-sol-artifact-1",
  "contractName": "TicketVerification",
  "sourceName": "contracts/TicketVerification.sol",
  "abi": [
    {
      "anonymous": false,
      "inputs": [
        {
          "indexed": true,
          "internalType": "uint256",
          "name": "eventId",
          "type": "uint256"
        },
        {
          "indexed": false,
          "internalType": "string",
          "name": "name",
          "type": "string"
        },
        {
          "indexed": false,
          "internalType": "address",
          "name": "organizer",
          "type": "address"
        }
      ],
      "name": "EventCreated",
      "type": "event"
    },
    {
      "anonymous": false,
      "inputs": [
        {
          "indexed": true,
          "internalType": "uint256",
          "name": "ticketId",
          "type": "uint256"
        },
        {
          "indexed": true,
          "internalType": "uint256",
          "name": "eventId",
          "type": "uint256"
        },
        {
          "indexed": false,
          "internalType": "address",
          "name": "owner",
          "type": "address"
        }
      ],
      "name": "TicketMinted",
      "type": "event"
    },
    {
      "anonymous": false,
      "inputs": [
        {
          "indexed": true,
          "internalType": "uint256",
          "name": "ticketId",
          "type": "uint256"
        },
        {
          "indexed": false,
          "internalType": "address",
          "name": "from",
          "type": "address"
        },
        {
          "indexed": false,
          "internalType": "address",
          "name": "to",
          "type": "address"
        }
      ],
      "name": "TicketTransferred",
      "type": "event"
    },
    {
      "anonymous": false,
      "inputs": [
        {
          "indexed": true,
          "internalType": "uint256",
          "name": "ticketId",
          "type": "uint256"
        },
        {
          "indexed": true,
          "internalType": "uint256",
          "name": "eventId",
          "type": "uint256"
        }
      ],
      "name": "TicketUsed",
      "type": "event"
    },
    {
      "inputs": [
        {
          "internalType": "string",
          "name": "name",
          "type": "string"
        },
        {
          "internalType": "uint256",
          "name": "date",
          "type": "uint256"
        },
        {
          "internalType": "uint256",
          "name": "ticketPrice",
          "type": "uint256"
        },
        {
          "internalType": "uint256",
          "name": "ticketLimit",
          "type": "uint256"
        }
      ],
      "name": "createEvent",
      "outputs": [
        {
          "internalType": "uint256",
          "name": "",
          "type": "uint256"
        }
      ],
      "stateMutability": "nonpayable",
      "type": "function"
    },
    {
      "inputs": [
        {
          "internalType": "uint256",
          "name": "",
          "type": "uint256"
        }
      ],
      "name": "events",
      "outputs": [
        {
          "internalType": "uint256",
          "name": "eventId",
          "type": "uint256"
        },
        {
          "internalType": "string",
          "name": "name",
          "type": "string"
        },
        {
          "internalType": "uint256",
          "name": "date",
          "type": "uint256"
        },
        {
          "internalType": "uint256",
          "name": "ticketPrice",
          "type": "uint256"
        },
        {
          "internalType": "uint256",
          "name": "ticketLimit",
          "type": "uint256"
        },
        {
          "internalType": "uint256",
          "name": "ticketsSold",
          "type": "uint256"
        },
        {
          "internalType": "address",
          "name": "organizer",
          "type": "address"
        },
        {
          "internalType": "bool",
          "name": "exists",
          "type": "bool"
        }
      ],
      "stateMutability": "view",
      "type": "function"
    },
    {
      "inputs": [],
      "name": "getEventCount",
      "outputs": [
        {
          "internalType": "uint256",
          "name": "",
          "type": "uint256"
        }
      ],
      "stateMutability": "view",
      "type": "function"
    },
    {
      "inputs": [
        {
          "internalType": "uint256",
          "name": "eventId",
          "type": "uint256"
        }
      ],
      "name": "getEventTickets",
      "outputs": [
        {
          "internalType": "uint256[]",
          "name": "",
          "type": "uint256[]"
        }
      ],
      "stateMutability": "view",
      "type": "function"
    },
    {
      "inputs": [],
      "name": "getTicketCount",
      "outputs": [
        {
          "internalType": "uint256",
          "name": "",
          "type": "uint256"
        }
      ],
      "stateMutability": "view",
      "type": "function"
    },
    {
      "inputs": [
        {
          "internalType": "address",
          "name": "user",
          "type": "address"
        }
      ],
      "name": "getUserTickets",
      "outputs": [
        {
          "internalType": "uint256[]",
          "name": "",
          "type": "uint256[]"
        }
      ],
      "stateMutability": "view",
      "type": "function"
    },
    {
      "inputs": [
        {
          "internalType": "uint256",
          "name": "eventId",
          "type": "uint256"
        }
      ],
      "name": "mintTicket",
      "outputs": [
        {
          "internalType": "uint256",
          "name": "",
          "type": "uint256"
        }
      ],
      "stateMutability": "payable",
      "type": "function"
    },
    {
      "inputs": [
        {
          "internalType": "uint256",
          "name": "",
          "type": "uint256"
        }
      ],
      "name": "tickets",
      "outputs": [
        {
          "internalType": "uint256",
          "name": "ticketId",
          "type": "uint256"
        },
        {
          "internalType": "uint256",
          "name": "eventId",
          "type": "uint256"
        },
        {
          "internalType": "address",
          "name": "owner",
          "type": "address"
        },
        {
          "internalType": "uint256",
          "name": "timestamp",
          "type": "uint256"
        },
        {
          "internalType": "bool",
          "name": "isUsed",
          "type": "bool"
        },
        {
          "internalType": "bool",
          "name": "exists",
          "type": "bool"
        }
      ],
      "stateMutability": "view",
      "type": "function"
    },
    {
      "inputs": [
        {
          "internalType": "uint256",
          "name": "ticketId",
          "type": "uint256"
        },
        {
          "internalType": "address",
          "name": "to",
          "type": "address"
        }
      ],
      "name": "transferTicket",
      "outputs": [],
      "stateMutability": "nonpayable",
      "type": "function"
    },
    {
      "inputs": [
        {
          "internalType": "uint256",
          "name": "ticketId",
          "type": "uint256"
        }
      ],
      "name": "useTicket",
      "outputs": [],
      "stateMutability": "nonpayable",
      "type": "function"
    },
    {
      "inputs": [
        {
          "internalType": "uint256",
          "name": "ticketId",
          "type": "uint256"
        }
      ],
      "name": "verifyTicket",
      "outputs": [
        {
          "internalType": "uint256",
          "name": "tId",
          "type": "uint256"
        },
        {
          "internalType": "uint256",
          "name": "eventId",
          "type": "uint256"
        },
        {
          "internalType": "address",
          "name": "owner",
          "type": "address"
        },
        {
          "internalType": "uint256",
          "name": "timestamp",
          "type": "uint256"
        },
        {
          "internalType": "bool",
          "name": "isUsed",
          "type": "bool"
        },
        {
          "internalType": "bool",
          "name": "isValid",
          "type": "bool"
        }
      ],
      "stateMutability": "view",
      "type": "function"
    }
  ],
  "bytecode": "0x608060405234801561001057600080fd5b50612303806100206000396000f3fe60806040526004361061009c5760003560e01c8063266064481161006457806326606448146101ba57806350b44712146101e3578063543cb81f14610225578063679ebf1a14610267578063ca261ce114610290578063d9e48f5c146102cd5761009c565b80630374ab0b146100a15780630484a22f146100de5780630b7914301461011b57806321c63a471461015f578063256d52f61461018a575b600080fd5b3480156100ad57600080fd5b506100c860048036038101906100c391906114a5565b6102f8565b6040516100d5919061153c565b60405180910390f35b3480156100ea57600080fd5b50610105600480360381019061010091906115b5565b610587565b60405161011291906116a0565b60405180910390f35b34801561012757600080fd5b50610142600480360381019061013d91906116c2565b61061e565b6040516101569897969594939291906117a9565b60405180910390f35b34801561016b57600080fd5b5061017461071b565b604051610181919061153c565b60405180910390f35b6101a4600480360381019061019f91906116c2565b610725565b6040516101b1919061153c565b60405180910390f35b3480156101c657600080fd5b506101e160048036038101906101dc91906116c2565b610b11565b005b3480156101ef57600080fd5b5061020a600480360381019061020591906116c2565b610d3f565b60405161021c9695949392919061182e565b60405180910390f35b34801561023157600080fd5b5061024c600480360381019061024791906116c2565b610db5565b60405161025e9695949392919061182e565b60405180910390f35b34801561027357600080fd5b5061028e6004803603810190610289919061188f565b610e94565b005b34801561029c57600080fd5b506102b760048036038101906102b291906116c2565b611282565b6040516102c491906116a0565b60405180910390f35b3480156102d957600080fd5b506102e26112ed565b6040516102ef919061153c565b60405180910390f35b600080868690501161033f576040517f08c379a00000000000000000000000000000000000000000000000000000000081526004016103369061191b565b60405180910390fd5b428411610381576040517f08c379a000000000000000000000000000000000000000000000000000000000815260040161037890611987565b60405180910390fd5b600082116103c4576040517f08c379a00000000000000000000000000000000000000000000000000000000081526004016103bb906119f3565b60405180910390fd5b6000808154809291906103d690611a42565b919050555060008054905060405180610100016040528082815260200188888080601f016020809104026020016040519081016040528093929190818152602001838380828437600081840152601f19601f820116905080830192505050505050508152602001868152602001858152602001848152602001600081526020013373ffffffffffffffffffffffffffffffffffffffff16815260200160011515815250600260008381526020019081526020016000206000820151816000015560208201518160010190816104ab9190611cc5565b5060408201518160020155606082015181600301556080820151816004015560a0820151816005015560c08201518160060160006101000a81548173ffffffffffffffffffffffffffffffffffffffff021916908373ffffffffffffffffffffffffffffffffffffffff16021790555060e08201518160060160146101000a81548160ff021916908315150217905550905050807f40fb05b814a900c99fa0a76d919dfdeaf3389540e4ca70f97ba40ca9a38f379788883360405161057293929190611dd3565b60405180910390a28091505095945050505050565b6060600460008373ffffffffffffffffffffffffffffffffffffffff1673ffffffffffffffffffffffffffffffffffffffff16815260200190815260200160002080548060200260200160405190810160405280929190818152602001828054801561061257602002820191906000526020600020905b8154815260200190600101908083116105fe575b50505050509050919050565b600260205280600052604060002060009150905080600001549080600101805461064790611ae8565b80601f016020809104026020016040519081016040528092919081815260200182805461067390611ae8565b80156106c05780601f10610695576101008083540402835291602001916106c0565b820191906000526020600020905b8154815290600101906020018083116106a357829003601f168201915b5050505050908060020154908060030154908060040154908060050154908060060160009054906101000a900473ffffffffffffffffffffffffffffffffffffffff16908060060160149054906101000a900460ff16905088565b6000600154905090565b6000806002600084815260200190815260200160002090508060060160149054906101000a900460ff1661078e576040517f08c379a000000000000000000000000000000000000000000000000000000000815260040161078590611e51565b60405180910390fd5b80600401548160050154106107d8576040517f08c379a00000000000000000000000000000000000000000000000000000000081526004016107cf90611ebd565b60405180910390fd5b806003015434101561081f576040517f08c379a000000000000000000000000000000000000000000000000000000000815260040161081690611f29565b60405180910390fd5b6001600081548092919061083290611a42565b9190505550600060015490506040518060c001604052808281526020018581526020013373ffffffffffffffffffffffffffffffffffffffff1681526020014281526020016000151581526020016001151581525060036000838152602001908152602001600020600082015181600001556020820151816001015560408201518160020160006101000a81548173ffffffffffffffffffffffffffffffffffffffff021916908373ffffffffffffffffffffffffffffffffffffffff1602179055506060820151816003015560808201518160040160006101000a81548160ff02191690831515021790555060a08201518160040160016101000a81548160ff02191690831515021790555090505081600501600081548092919061095790611a42565b9190505550600460003373ffffffffffffffffffffffffffffffffffffffff1673ffffffffffffffffffffffffffffffffffffffff168152602001908152602001600020819080600181540180825580915050600190039060005260206000200160009091909190915055600560008581526020019081526020016000208190806001815401808255809150506001900390600052602060002001600090919091909150558160030154341115610a5f573373ffffffffffffffffffffffffffffffffffffffff166108fc836003015434610a329190611f49565b9081150290604051600060405180830381858888f19350505050158015610a5d573d6000803e3d6000fd5b505b8160060160009054906101000a900473ffffffffffffffffffffffffffffffffffffffff1673ffffffffffffffffffffffffffffffffffffffff166108fc83600301549081150290604051600060405180830381858888f19350505050158015610acd573d6000803e3d6000fd5b5083817f085ec0eff4bf526b0dd054adffcd8bd8da42126a1133ce302042973f32029fb033604051610aff9190611f7d565b60405180910390a38092505050919050565b806003600082815260200190815260200160002060040160019054906101000a900460ff16610b75576040517f08c379a0000000000000000000000000000000000000000000000000000000008152600401610b6c90611fe4565b60405180910390fd5b6003600082815260200190815260200160002060040160009054906101000a900460ff1615610bd9576040517f08c379a0000000000000000000000000000000000000000000000000000000008152600401610bd090612050565b60405180910390fd5b60006003600084815260200190815260200160002090508060040160019054906101000a900460ff16610c41576040517f08c379a0000000000000000000000000000000000000000000000000000000008152600401610c3890611fe4565b60405180910390fd5b6000816001015490503373ffffffffffffffffffffffffffffffffffffffff166002600083815260200190815260200160002060060160009054906101000a900473ffffffffffffffffffffffffffffffffffffffff1673ffffffffffffffffffffffffffffffffffffffff1614610cee576040517f08c379a0000000000000000000000000000000000000000000000000000000008152600401610ce5906120e2565b60405180910390fd5b60018260040160006101000a81548160ff02191690831515021790555080847fad0a02848182e7d3a9bb0ae2cc919bdef92f9da6b0a45ced3656cf5443212ede60405160405180910390a350505050565b60036020528060005260406000206000915090508060000154908060010154908060020160009054906101000a900473ffffffffffffffffffffffffffffffffffffffff16908060030154908060040160009054906101000a900460ff16908060040160019054906101000a900460ff16905086565b60008060008060008060006003600089815260200190815260200160002090508060040160019054906101000a900460ff16610e26576040517f08c379a0000000000000000000000000000000000000000000000000000000008152600401610e1d90611fe4565b60405180910390fd5b806000015481600101548260020160009054906101000a900473ffffffffffffffffffffffffffffffffffffffff1683600301548460040160009054906101000a900460ff168560040160019054906101000a900460ff169650965096509650965096505091939550919395565b816003600082815260200190815260200160002060040160019054906101000a900460ff16610ef8576040517f08c379a0000000000000000000000000000000000000000000000000000000008152600401610eef90611fe4565b60405180910390fd5b3373ffffffffffffffffffffffffffffffffffffffff166003600083815260200190815260200160002060020160009054906101000a900473ffffffffffffffffffffffffffffffffffffffff1673ffffffffffffffffffffffffffffffffffffffff1614610f9c576040517f08c379a0000000000000000000000000000000000000000000000000000000008152600401610f939061214e565b60405180910390fd5b826003600082815260200190815260200160002060040160019054906101000a900460ff16611000576040517f08c379a0000000000000000000000000000000000000000000000000000000008152600401610ff790611fe4565b60405180910390fd5b6003600082815260200190815260200160002060040160009054906101000a900460ff1615611064576040517f08c379a000000000000000000000000000000000000000000000000000000000815260040161105b90612050565b60405180910390fd5b600073ffffffffffffffffffffffffffffffffffffffff168373ffffffffffffffffffffffffffffffffffffffff16036110d3576040517f08c379a00000000000000000000000000000000000000000000000000000000081526004016110ca906121ba565b60405180910390fd5b3373ffffffffffffffffffffffffffffffffffffffff168373ffffffffffffffffffffffffffffffffffffffff1603611141576040517f08c379a000000000000000000000000000000000000000000000000000000000815260040161113890612226565b60405180910390fd5b60006003600086815260200190815260200160002060020160009054906101000a900473ffffffffffffffffffffffffffffffffffffffff169050836003600087815260200190815260200160002060020160006101000a81548173ffffffffffffffffffffffffffffffffffffffff021916908373ffffffffffffffffffffffffffffffffffffffff1602179055506111db81866112f6565b600460008573ffffffffffffffffffffffffffffffffffffffff1673ffffffffffffffffffffffffffffffffffffffff168152602001908152602001600020859080600181540180825580915050600190039060005260206000200160009091909190915055847fd15524263ae66f75c1e604c47db6085085110f23ef7322b355179ac5e3b0783a8286604051611273929190612246565b60405180910390a25050505050565b6060600560008381526020019081526020016000208054806020026020016040519081016040528092919081815260200182805480156112e157602002820191906000526020600020905b8154815260200190600101908083116112cd575b50505050509050919050565b60008054905090565b6000600460008473ffffffffffffffffffffffffffffffffffffffff1673ffffffffffffffffffffffffffffffffffffffff168152602001908152602001600020905060005b81805490508110156113fa578282828154811061135c5761135b61226f565b5b9060005260206000200154036113e757816001838054905061137e9190611f49565b8154811061138f5761138e61226f565b5b90600052602060002001548282815481106113ad576113ac61226f565b5b9060005260206000200181905550818054806113cc576113cb61229e565b5b600190038181906000526020600020016000905590556113fa565b80806113f290611a42565b91505061133c565b50505050565b600080fd5b600080fd5b600080fd5b600080fd5b600080fd5b60008083601f84011261142f5761142e61140a565b5b8235905067ffffffffffffffff81111561144c5761144b61140f565b5b60208301915083600182028301111561146857611467611414565b5b9250929050565b6000819050919050565b6114828161146f565b811461148d57600080fd5b50565b60008135905061149f81611479565b92915050565b6000806000806000608086880312156114c1576114c0611400565b5b600086013567ffffffffffffffff8111156114df576114de611405565b5b6114eb88828901611419565b955095505060206114fe88828901611490565b935050604061150f88828901611490565b925050606061152088828901611490565b9150509295509295909350565b6115368161146f565b82525050565b6000602082019050611551600083018461152d565b92915050565b600073ffffffffffffffffffffffffffffffffffffffff82169050919050565b600061158282611557565b9050919050565b61159281611577565b811461159d57600080fd5b50565b6000813590506115af81611589565b92915050565b6000602082840312156115cb576115ca611400565b5b60006115d9848285016115a0565b91505092915050565b600081519050919050565b600082825260208201905092915050565b6000819050602082019050919050565b6116178161146f565b82525050565b6000611629838361160e565b60208301905092915050565b6000602082019050919050565b600061164d826115e2565b61165781856115ed565b9350611662836115fe565b8060005b8381101561169357815161167a888261161d565b975061168583611635565b925050600181019050611666565b5085935050505092915050565b600060208201905081810360008301526116ba8184611642565b905092915050565b6000602082840312156116d8576116d7611400565b5b60006116e684828501611490565b91505092915050565b600081519050919050565b600082825260208201905092915050565b60005b8381101561172957808201518184015260208101905061170e565b60008484015250505050565b6000601f19601f8301169050919050565b6000611751826116ef565b61175b81856116fa565b935061176b81856020860161170b565b61177481611735565b840191505092915050565b61178881611577565b82525050565b60008115159050919050565b6117a38161178e565b82525050565b6000610100820190506117bf600083018b61152d565b81810360208301526117d1818a611746565b90506117e0604083018961152d565b6117ed606083018861152d565b6117fa608083018761152d565b61180760a083018661152d565b61181460c083018561177f565b61182160e083018461179a565b9998505050505050505050565b600060c082019050611843600083018961152d565b611850602083018861152d565b61185d604083018761177f565b61186a606083018661152d565b611877608083018561179a565b61188460a083018461179a565b979650505050505050565b600080604083850312156118a6576118a5611400565b5b60006118b485828601611490565b92505060206118c5858286016115a0565b9150509250929050565b7f4576656e74206e616d652063616e6e6f7420626520656d707479000000000000600082015250565b6000611905601a836116fa565b9150611910826118cf565b602082019050919050565b60006020820190508181036000830152611934816118f8565b9050919050565b7f4576656e742064617465206d75737420626520696e2074686520667574757265600082015250565b60006119716020836116fa565b915061197c8261193b565b602082019050919050565b600060208201905081810360008301526119a081611964565b9050919050565b7f5469636b6574206c696d6974206d757374206265203e20300000000000000000600082015250565b60006119dd6018836116fa565b91506119e8826119a7565b602082019050919050565b60006020820190508181036000830152611a0c816119d0565b9050919050565b7f4e487b7100000000000000000000000000000000000000000000000000000000600052601160045260246000fd5b6000611a4d8261146f565b91507fffffffffffffffffffffffffffffffffffffffffffffffffffffffffffffffff8203611a7f57611a7e611a13565b5b600182019050919050565b7f4e487b7100000000000000000000000000000000000000000000000000000000600052604160045260246000fd5b7f4e487b7100000000000000000000000000000000000000000000000000000000600052602260045260246000fd5b60006002820490506001821680611b0057607f821691505b602082108103611b1357611b12611ab9565b5b50919050565b60008190508160005260206000209050919050565b60006020601f8301049050919050565b600082821b905092915050565b600060088302611b7b7fffffffffffffffffffffffffffffffffffffffffffffffffffffffffffffffff82611b3e565b611b858683611b3e565b95508019841693508086168417925050509392505050565b6000819050919050565b6000611bc2611bbd611bb88461146f565b611b9d565b61146f565b9050919050565b6000819050919050565b611bdc83611ba7565b611bf0611be882611bc9565b848454611b4b565b825550505050565b600090565b611c05611bf8565b611c10818484611bd3565b505050565b5b81811015611c3457611c29600082611bfd565b600181019050611c16565b5050565b601f821115611c7957611c4a81611b19565b611c5384611b2e565b81016020851015611c62578190505b611c76611c6e85611b2e565b830182611c15565b50505b505050565b600082821c905092915050565b6000611c9c60001984600802611c7e565b1980831691505092915050565b6000611cb58383611c8b565b9150826002028217905092915050565b611cce826116ef565b67ffffffffffffffff811115611ce757611ce6611a8a565b5b611cf18254611ae8565b611cfc828285611c38565b600060209050601f831160018114611d2f5760008415611d1d578287015190505b611d278582611ca9565b865550611d8f565b601f198416611d3d86611b19565b60005b82811015611d6557848901518255600182019150602085019450602081019050611d40565b86831015611d825784890151611d7e601f891682611c8b565b8355505b6001600288020188555050505b505050505050565b82818337600083830152505050565b6000611db283856116fa565b9350611dbf838584611d97565b611dc883611735565b840190509392505050565b60006040820190508181036000830152611dee818587611da6565b9050611dfd602083018461177f565b949350505050565b7f4576656e7420646f6573206e6f74206578697374000000000000000000000000600082015250565b6000611e3b6014836116fa565b9150611e4682611e05565b602082019050919050565b60006020820190508181036000830152611e6a81611e2e565b9050919050565b7f4576656e7420736f6c64206f7574000000000000000000000000000000000000600082015250565b6000611ea7600e836116fa565b9150611eb282611e71565b602082019050919050565b60006020820190508181036000830152611ed681611e9a565b9050919050565b7f496e73756666696369656e74207061796d656e74000000000000000000000000600082015250565b6000611f136014836116fa565b9150611f1e82611edd565b602082019050919050565b60006020820190508181036000830152611f4281611f06565b9050919050565b6000611f548261146f565b9150611f5f8361146f565b9250828203905081811115611f7757611f76611a13565b5b92915050565b6000602082019050611f92600083018461177f565b92915050565b7f5469636b657420646f6573206e6f742065786973740000000000000000000000600082015250565b6000611fce6015836116fa565b9150611fd982611f98565b602082019050919050565b60006020820190508181036000830152611ffd81611fc1565b9050919050565b7f5469636b657420616c7265616479207573656400000000000000000000000000600082015250565b600061203a6013836116fa565b915061204582612004565b602082019050919050565b600060208201905081810360008301526120698161202d565b9050919050565b7f4f6e6c79206576656e74206f7267616e697a65722063616e206d61726b20746960008201527f636b657473206173207573656400000000000000000000000000000000000000602082015250565b60006120cc602d836116fa565b91506120d782612070565b604082019050919050565b600060208201905081810360008301526120fb816120bf565b9050919050565b7f4f6e6c79207469636b6574206f776e657220616c6c6f77656400000000000000600082015250565b60006121386019836116fa565b915061214382612102565b602082019050919050565b600060208201905081810360008301526121678161212b565b9050919050565b7f43616e6e6f74207472616e7366657220746f207a65726f206164647265737300600082015250565b60006121a4601f836116fa565b91506121af8261216e565b602082019050919050565b600060208201905081810360008301526121d381612197565b9050919050565b7f43616e6e6f74207472616e7366657220746f20796f757273656c660000000000600082015250565b6000612210601b836116fa565b915061221b826121da565b602082019050919050565b6000602082019050818103600083015261223f81612203565b9050919050565b600060408201905061225b600083018561177f565b612268602083018461177f565b9392505050565b7f4e487b7100000000000000000000000000000000000000000000000000000000600052603260045260246000fd5b7f4e487b7100000000000000000000000000000000000000000000000000000000600052603160045260246000fdfea264697066735822122094ce6878e02e61ce868786ebd91b1154978ad7c59ffb857b0f8d0585cec16ad364736f6c63430008140033",
  "linkReferences": {},
  "deployedLinkReferences": {}
}